:020000040800F2
:1000000020070020A10100083B240008412200082D
:1000100039240008AD080008592D00080000000030
:100020000000000000000000000000002F25000874
:100030006D090008000000002D250008312500088A
:10004000BB010008BB010008BB010008BB010008A0
:10005000BB010008BB010008BB010008BB01000890
:10006000BB010008BB010008BB010008BB01000880
:10007000B1080008BB010008BD080008BB0100086A
:10008000BB010008BB010008BB010008BB01000860
:10009000BB010008BB010008BB0100086F09000894
:1000A000BB010008BB010008BB010008BB01000840
:1000B000BB010008BB010008BB010008BB01000830
:1000C000BB010008BB010008BB010008BB01000820
:1000D000BB010008BB010008BB0100084D2D000852
:1000E000BB010008BB010008BB010008BB01000800
:1000F000BB010008BB010008BB010008BB010008F0
:10010000BB010008BB010008BB010008BB010008DF
:10011000BB010008BB010008BB010008BB010008CF
:10012000BB010008BB010008BB010008BB010008BF
:10013000BB0100080000000000000000BB01000837
:10014000BB010008BB010008BB010008BB0100089F
:10015000BB010008BB010008BB010008BB0100088F
:10016000BB010008BB010008BB010008BB0100087F
:10017000BB010008BB0100080000000000000000F7
:10018000BB010008BB010008DFF810D000F0ACFA9A
:10019000004800474D370008AFF3008020070020DB
:1001A0000648804706480047FEE7FEE7FEE7FEE711
:1001B000FEE7FEE7FEE7FEE7FEE7FEE7CD250008E7
:1001C000890100082DE9F05F0546002092469B4614
:1001D00088460646814640241BE02846414647465D
:1001E000224600F081F853465A46C01A914110D376
:1001F00011461846224600F068F82D1A67EB0108F0
:100200004F4622460120002100F05FF817EB00095D
:100210004E41201EA4F10104DFDC484631462A4647
:100220004346BDE8F09FD2B201E000F8012B491E21
:10023000FBD270470022F6E710B513460A46044683
:100240001946FFF7F0FF204610BD10B5002200E070
:10025000521C835C8C5CA34201D1002BF8D1D8B234
:10026000E1B2401A10BD30B505460020034600E05B
:100270005B1C934205D2EC5CC85C201A01D1002CB7
:10028000F6D130BD70B5064602F0A2FD0468054601
:100290000A220021304600F037F82C6070BD30B5DE
:1002A0000B46014600202022012409E021FA02F534
:1002B0009D4205D303FA02F5491B04FA02F52844CE
:1002C000151EA2F10102F1DC30BD202A04DB203A28
:1002D00000FA02F1002070479140C2F1200320FA99
:1002E00003F3194390407047202A04DB203A21FA97
:1002F00002F00021704721FA02F3D040C2F120023F
:1003000091400843194670472DE9F04791460F4642
:1003100080460446002614F8015B2DB100F008FA6F
:100320000068405DC007F6D12B2D02D02D2D18D0CE
:10033000641E4A463946204600F0FEF927B1396866
:10034000A14201D1C7F8008071054FF002040BD51E
:100350004042002803DD02F03BFD0460A007BDE839
:10036000F08746F48066E4E70028F8DA02F030FD12
:1003700004606FF00040F2E72DE9FE4F804681EA0D
:100380000300C00F0C46009021F0004123F000450F
:10039000B8EB0200A94105D24046214690461C46D2
:1003A0000B46024623F00040104347D0270DC7F309
:1003B0000A00C3F30A510290401A019040286BDAF8
:1003C000C3F3130040F4801B0098924620B1002331
:1003D000D2EB030A63EB0B0B01985946C0F14002C4
:1003E0005046FFF772FF06460D4650465946019AA1
:1003F00000F08CF910EB08006141002487EA1152EB
:1004000084EAE7731A4340D0009A62B3019A012A42
:100410004FEA075215DC001B61EB02014FF000426E
:1004200002EA0752CDE90042001C41F58011324634
:100430002B4600F0DFF903B0BDE8F08F40462146BF
:10044000F9E7001B61EB0201001C41F58013001865
:100450005B412018A2F5001747EB030140EAD57075
:10046000B6196D4111E06D084FEA360645EAC075D0
:100470004FEA0752001B61EB0201001C41F580119D
:1004800049084FEA30000019514132462B4603B06B
:10049000BDE8F04F00F09FB9009801224000002312
:1004A000D0EB020263EBE073009821464FEAE07460
:1004B000B8EB000061EB0401E9E783F000435BE780
:1004C00081F0004158E72DE9FE4F81EA030404F072
:1004D000004421F0004100944FF0000B23F0004352
:1004E00050EA01045ED052EA03045BD0C3F30A541D
:1004F000C1F30A552C44A4F2F3340194A0FB025436
:10050000C1F3130141F48011C3F3130343F48013C7
:1005100001FB024400FB034E840A970A44EA81541B
:1005200047EA8357A4FB076802958D0A05FB0785F8
:100530004FEA932C04FB0C542705029D4FEA065802
:1005400047EA1637B5EB08056EEB070C870E920EDF
:1005500047EA811742EA8312A7FB0201B6EB0B01BF
:1005600064EB00042B0D43EA0C335E1844EB1C5083
:10057000DA465146E7FB0201C5F313044FEA0B3399
:1005800043EA14534FEA0432019C43EA0603A4F100
:100590000C040294009CCDE900B400F02BF903B0E8
:1005A000BDE8F08F00200146F9E72DE9F04D81EA22
:1005B000030404F0004B21F0004514464FF0000AFC
:1005C00023F0004150EA050220D054EA01021DD078
:1005D000C5F30A570246C5F31303C1F31300C1F371
:1005E0000A5640F4801543F48013A7EB0608101B4D
:1005F000D64608F2FD3873EB050002D308F1010876
:1006000001E092185B41B8F1000F03DA00200146C7
:10061000BDE8F08D00204FF48011064684460EE0C0
:10062000171B73EB050705D3121B63EB050306438A
:100630004CEA010C49084FEA300092185B4150EA3D
:100640000107EDD152EA030012D082EA040083EAE6
:100650000501084305D0101BAB4106D2012200233F
:1006600006E000224FF0004302E06FF00102531059
:100670001AEB06004CEB085110EB0A0041EB0B01A2
:10068000BDE8F04D00F0A7B8C1F30A52C1F3130161
:1006900040F2FF3341F480119A4202DA0020014611
:1006A000704740F233439A42A2F2334202DC524294
:1006B000FFF71ABEFFF709BE30B5041E71F1000442
:1006C00004DB4FF00044404264EB0101141E73F15F
:1006D000000405DB1C464FF00043524263EB040369
:1006E000994208BF904230BD064C074D06E0E068D5
:1006F00040F0010394E8070098471034AC42F6D369
:10070000FFF746FDDC3B0008FC3B0008202A06DB27
:10071000CB17203A41FA02F043EAE07306E041FACF
:1007200002F3D040C2F120029140084319467047BD
:1007300000487047943B00082DE9F05F824600783E
:10074000002715468B460AF10104B946302801D02E
:100750009DB113E014F8010B0127782803D0582825
:1007600001D045B10AE00DB1102D07D100271025A9
:1007700014F8010B02E0082500E00A250026B04627
:100780000EE005FB080005FB06F1012701EB104612
:100790001FFA80F8B6F5803F00D3B94614F8010B74
:1007A000294600F075F80028EBDABBF1000F05D000
:1007B0000FB1641E00E05446CBF80040B9F1000FC1
:1007C00006D002F005FB02210160C81EBDE8F09FC3
:1007D00048EA0640FAE710B5141E73F1000408DA7F
:1007E000401C41F1000192185B411A4301D120F0F5
:1007F000010010BD2DE9F04D92469B4611B1B1FAB2
:1008000081F202E0B0FA80F220329046FFF75DFDFF
:1008100004460F4640EA0A0041EA0B0153465A4695
:10082000084313D0114653EA010019D0C8F1400221
:100830005046FFF759FD05460E465046594642467A
:10084000FFF743FD084305D0012004E02046394668
:10085000BDE8F08D0020054346EAE0762C4337439F
:100860000A986305E40AA0EB08000022FD0A44EAA6
:1008700047540A3002D500200146E9E70105101966
:100880006941DDE9084500196941BDE8F04DA2E77D
:100890003A2800D2303820F02002412A01D3A2F1B8
:1008A0003700884201D34FF0FF307047FEE7000069
:1008B000014800F0C7B8000060020020014800F0C5
:1008C000C1B80000C002002001681823CAB2103A63
:1008D000B2FBF3F2054B6FF30901032A9B5CC3657E
:1008E00000D9091D8165084670470000F03A0008EC
:1008F00010B5014600208B698A6A4FF0C07453B16D
:10090000B3F5005F15D072B1012A0CD0022A0AD0CB
:10091000032A09D104E01AB1012A06D0022A03D120
:10092000C96AC90100D5012010BDC96AA142FAD027
:1009300010BD002AF7D0012AF2D0022AF3D0032AF0
:10094000F3D010BD30B50468256825F480252560F6
:10095000046863608368402B036803D09960006873
:10096000C26030BD9A600068C16030BD704710B58C
:10097000402000F0EBF9802000F0E8F9BDE81040DD
:100980004FF4807000F0E2B972B6FEE72DE9F04155
:100990000446876D00F0E8FA064694F83500002515
:1009A000022806D08020606584F834500120BDE81C
:1009B000F0812068016821F016010160206841691A
:1009C00021F080014161206C08B9A06C20B1206841
:1009D000016821F0080101602068016821F001012F
:1009E00001600CE000F0C0FA801B052807D9202028
:1009F0006065032084F8350084F83450D7E7206818
:100A00000068C007EED194F85C103F208840B860C1
:100A1000012084F8350084F834500020C7E790F8AE
:100A20003510022903D0802141650120704705213E
:100A300080F835100068016821F001010160002094
:100A4000704700002DE9F84304464FF00009CDF847
:100A5000009063484FF41651A56D0068B0FBF1F7A4
:100A60002E6894F85C10082000FA01F131420FD092
:100A700021680A6852070BD50A6822F004020A604E
:100A800094F85C108840A860606D40F001006065DB
:100A900094F85C104FF0010808FA01F0304208D0D9
:100AA00021684969090604D5A860606D40F002001C
:100AB000606594F85C1004208840304208D02168BA
:100AC0000968890704D5A860606D40F0040060657E
:100AD00094F85C1010208840304218D021680968D2
:100AE000090714D5A86020680168490304D5006887
:100AF000000308D5A16C07E00168C90503D40168AB
:100B000021F008010160216C09B12046884794F862
:100B10005C1020208840304231D021680968C90625
:100B20002DD5A86094F8350005282068016806D006
:100B3000490347D5006800031DD4616C1CE021F017
:100B4000160101602068416921F080014161206C3B
:100B500008B9A06C20B12068016821F0080101608B
:100B600094F85C103F208840A86084F8358084F8B1
:100B70003490216D1FE0E16B09B120468847606D1C
:100B800000282BD0606DC00714D0052084F83500F4
:100B90002068016821F0010101600098401C00906C
:100BA000B84203D820680068C007F6D184F83580C1
:100BB00084F83490E16C002910D001B02046BDE8E3
:100BC000F04308470168C905D5D4016821F0100138
:100BD000016084F8358084F83490CCE7BDE8F88370
:100BE000380000202DE9F041044600F0BDF906462A
:100BF0005CB1022084F83500002584F83450206868
:100C0000016821F0010101600DE00120BDE8F081E3
:100C100000F0AAF9801B052805D920206065032073
:100C200084F83500F2E720680068C007F0D1226838
:100C3000116820480140D4E901031843D4E9033680
:100C40003343184363691843A3691843E36918439E
:100C5000236A18430843616A042903D1D4E90B13BA
:100C600019430843106020684069666A20F0070154
:100C700030460E43012704280CD1A06A0643E06ADF
:100C800040B12046FFF734FE20B14020606584F873
:100C90003570BAE7206846612046FFF715FE94F8E4
:100CA0005C203F2191408160656584F835700020AB
:100CB000ACE700003F8010F02DE9F0410446866D5E
:100CC00090F83400002501280DD0012084F834006C
:100CD00094F835700020012F07D084F834000225E5
:100CE0002846BDE8F0810220FBE7022784F8357032
:100CF00060652046FFF726FE94F85C103F20884090
:100D0000B0602068016841F016010160206C20B1DC
:100D10002068016841F0080101602068016841F025
:100D200001010160DCE7000010B5402804D08028F4
:100D300002D0B0F5807F05D102F098FE02F0CCFD24
:100D40000149487010BD000000000020044910B5A2
:100D50000A68024202D00860FFF7E6FF10BD0000FB
:100D6000143C01402DE9F84FDFF8BCA10022012519
:100D700003264FF00F090AF1040BAAF1040E00BF7D
:100D80000B6805FA02F42340A34270D10F7907F0F3
:100D90000307012F01D0022F16D187684FEA4208BE
:100DA00006FA08FC27EA0C07D1F80CC00CFA08FC7C
:100DB0004CEA070CC0F808C04768A7430C79C4F395
:100DC000001494403C4344600C79E443A4070AD0E7
:100DD000C4684FEA420C06FA0CF7BC438F6807FA66
:100DE0000CF72743C7600C7904F00304022C12D1DE
:100DF000D40800EB840CDCF820405707FF0E09FAFA
:100E000007F824EA0804D1F8108008FA07F848EA3D
:100E10000408CCF8208004684FEA420C06FA0CF76C
:100E2000BC430F7907F0030707FA0CF72743076065
:100E30004C6814F4403F70D03C4C276847F480471E
:100E40002760246822F0030704F480440094384C9F
:100E500007EB040CDCF8084897074FEA177809FA03
:100E600008F7BC43334FB84202D1002724E054E0D6
:100E7000314FB84201D101271EE0304FB84201D1B5
:100E8000022719E02E4FB84201D1032714E02D4F5D
:100E9000B84201D104270FE02B4FB84201D10527FA
:100EA0000AE02A4FB84201D1062705E0284FB84290
:100EB00001D1072700E0082707FA08F72743CCF8F5
:100EC0000878DAF800405746D1F804C09C435FEA3E
:100ED000CC2C00D51C433C60DBF800405F46D1F8C9
:100EE00004C09C435FEA8C2C00D51C433C60DEF8B8
:100EF00000407746D1F804C09C435FEA8C3C00D5A3
:100F00001C433C60084F083F3C68D1F804C09C4338
:100F10005FEACC3C00D51C433C60521C102AFFF415
:100F20002FAFBDE8F88F0000083C01404438024074
:100F3000003001400000024000040240000802406E
:100F4000000C024000100240001402400018024051
:100F5000001C02400069084000D0012070470AB11F
:100F6000816170470904FBE7014880687047000011
:100F70002C0000200248816802781144816070478B
:100F80002C0000200B4810B5016841F4007101608D
:100F9000016841F480610160016841F48071016081
:100FA000032000F06FF80F2000F006F800F024F89E
:100FB000002010BD003C024070B50D4D04464FF4BA
:100FC0007A712878B1FBF0F00A490968B1FBF0F0BA
:100FD00000F00AFB48B9102C07D200222146501E0F
:100FE00000F030F800206C6070BD012070BD000082
:100FF0002C000020380000200A4808B5016841F4A0
:1010000080410160006800F4804000900548001FA6
:10101000016841F080510160006800F0805000904C
:1010200008BD000044380240002809DB00F01F0220
:10103000012191404009800000F1E020C0F800113A
:1010400070470000F0B40E4B1B680C46C3F302233C
:10105000C3F10705042D00D90425191D072901D264
:10106000002300E0DB1E012606FA05F1491E21409F
:1010700099409E40761E16403143F0BC01F098BE68
:101080000CED00E0064900F0070208684FF6FF0388
:10109000184040EA0220034A1043086070470000ED
:1010A0000CED00E00000FA052DE9F0470E460500C2
:1010B00065D0DFF81481D8F80000F7B200F007001F
:1010C000B04207D288F80070D8F8000000F007009E
:1010D000B04254D128683D4C810712D5400703D552
:1010E000206840F4E05020602878000703D520688D
:1010F00040F4604020602068A96820F0F0000843B8
:1011000020602878C0072DD0304968680839012848
:1011100012D0022813D0032811D0096889070029AA
:101120002DDA216821F0030101432160FFF71CFF44
:10113000814641F2883A0EE009688903EFE70968C1
:101140008901ECE7FFF710FFA0EB0901514502D937
:101150000320BDE8F0872068696800F00C00B0EB60
:10116000810FEFD1D8F80010404601F00701B142DD
:1011700007D90770006800F00700B04201D00120D5
:10118000E7E72878400705D52068E96820F4E050B3
:10119000084320602878000706D52068296920F4D4
:1011A000604040EAC100206000F038F82168084A39
:1011B000C1F30311515CC840064908600648006845
:1011C000FFF7FAFE0020C4E7003C02400838024066
:1011D000F83A000838000020300000200448054993
:1011E00000680968044AC1F38221515CC840704715
:1011F0003800002008380240083B00080448054930
:1012000000680968044AC1F34231515CC840704724
:101210003800002008380240083B0008154810B587
:10122000006810F00C02144813D04110042A0FD0AB
:10123000082A0ED10F4C241F2268236802F03F02B7
:101240005B0207D52068C0F38810A0FB010106E00F
:10125000084610BD2168C1F38811A1FB00010023DD
:10126000FEF7B0FF2168C1F30141491C4900B0FB02
:10127000F1F010BD083802400024F4002DE9F84FC9
:1012800004006ED02078DFF84C93C007A9F1040564
:101290004AD009F104000168C1F38101012908D095
:1012A0000068C0F3810002280AD1D9F8000040028A
:1012B00006D52868800337D560680028E1D033E080
:1012C0006068B0F5803F10D0B0F5A02F286810D02E
:1012D00020F480302860286820F48020286060682E
:1012E000A8B1FFF741FE06460DE0286840F48030C3
:1012F000F4E740F480202860F7E700BFFFF734FEF2
:10130000801B642873D828688003F7D50CE0FFF7AA
:101310002BFE064605E000BFFFF726FE801B642873
:10132000F0D828688003F7D42078DFF8AC828007F3
:101330004FF0000A3ED5A748001D016811F00C0FC0
:1013400008D00068C0F3810002280BD1D9F8000052
:10135000400207D42868800716D5E068012800D12C
:1013600012E033E1E068B8B10120C8F80000FFF7EF
:10137000FBFD064605E000BFFFF7F6FD801B0228D7
:10138000C0D828688007F7D52868216920F0F800C0
:1013900040EAC10028600DE0C8F800A0FFF7E4FDB6
:1013A000064604E0FFF7E0FD801B02281FD82868EE
:1013B0008007F7D42078000722D5864F87486169D7
:1013C000703771B101210160FFF7CEFD064604E0E0
:1013D000FFF7CAFD801B022809D838688007F7D5B7
:1013E0000EE0C0F800A0FFF7BFFD064605E082E072
:1013F000FFF7BAFD801B02287DD838688007F7D434
:101400002078400768D5DFF8CCB100270BF13C0B02
:10141000DBF80000C0000BD4DBF8001041F0805175
:10142000CBF80010DBF80000012700F0805000909E
:101430006B4E3068C00510D4306840F48070306066
:10144000FFF792FD009005E0FFF78EFD0099401A2E
:10145000022850D83068C005F6D55E4EA0686C36BC
:1014600001280FD00528306810D020F0010030602E
:10147000306820F004003060A068B8B1FFF774FD58
:1014800000900FE0306840F00100F4E740F0040005
:101490003060F7E7FFF768FD0099411A41F28830A4
:1014A000814266D830688007F4D50EE0FFF75CFD16
:1014B000009007E0FFF758FD0099411A41F288308B
:1014C000814256D830688007F4D42FB1DBF8001081
:1014D00021F08051CBF80010A069C8B33D49091D27
:1014E0000968C1F3810102294AD00228504607D079
:1014F000C8F8600000E03CE0FFF736FD04463BE042
:101500004746C8F86000FFF72FFD064605E000BF1C
:10151000FFF72AFD801B02282BD828688001F7D40A
:10152000D4E907010843A16A2E4A490802EB0141A8
:10153000626A41EA8211084394F82C1040EA016182
:10154000C9F8001001203866FFF70EFD044606E0DA
:101550003EE000BFFFF708FD001B022809D82868FD
:101560008001F7D534E000BFFFF7FEFC001B022826
:1015700002D90320BDE8F88F28688001F4D427E061
:101580000128F7D0D9F80000E26900F48001914207
:101590001CD1226A00F03F01914217D147F6C07179
:1015A000626A0140B1EB821F10D1A26A4FF0FF3393
:1015B00000F4403103EB5202B1EB024F06D194F834
:1015C0002C1000F07060B0EB016F01D00120D1E76A
:1015D0000020CFE70438024000004742800E474217
:1015E000007000400000FFFF10B5401EB0F1807F8A
:1015F00001D3012010BD4FF0E02460610F2160177E
:1016000001F0D6FB0020A06107202061002010BD62
:1016100010B590F83C20012A22D0012280F83C200D
:10162000CA688C6822F4407222434C6822F48062BB
:1016300022430C6822F4006222430C6922F4805297
:1016400022434C6922F400522243C969002322F448
:1016500080420A4301684A6480F83C30002010BD93
:10166000022010BD70B590F83C20012A32D0012430
:1016700080F83C40022280F83D2003685A689D684B
:1016800022F070060A6832435A60134B02689A428D
:1016900014D0B2F1804F11D0104B9A420ED0104BA3
:1016A0009A420BD00F4B9A4208D00F4B9A4205D06A
:1016B0000E4B9A4202D00E4B9A4204D1496825F053
:1016C00080031943916080F83D40002180F83C1070
:1016D000084670BD022070BD0000014000040040BB
:1016E00000080040000C00400004014000400140A0
:1016F0000018004010B5040003D094F83D0010B16C
:1017000007E0012010BD002084F83C00204600F0D6
:101710001FF8022084F83D00211D206800F05EFFC4
:10172000012084F8460084F83E0084F83F0084F8E5
:10173000400084F8410084F8420084F8430084F8B3
:10174000440084F8450084F83D00002010BD0000EE
:1017500008B500680949884201D1094804E0B0F1A0
:10176000804F09D10648001F016841F00101016066
:10177000006800F00100009008BD0000000001407A
:101780004438024090F83D10012901D001207047F3
:10179000022180F83D1000681149884214D0B0F150
:1017A000804F11D00F4988420ED00F4988420BD08C
:1017B0000E49884208D00E49884205D00D4988421A
:1017C00002D00D49884204D1816801F00701062941
:1017D00003D0016841F00101016000207047000062
:1017E000000001400004004000080040000C0040E0
:1017F00000040140004001400018004070B504465C
:1018000090F83C000025012817D0012684F83C60A0
:10181000022084F83D002068826822F0770222F4DA
:101820007F4282600868502838D00DDC20284FD0D5
:1018300005DC90B3102811D14AE0022070BD302899
:1018400046D040280AD13BE060282FD070280DD028
:10185000B0F5805F03D0B0F5005F12D0012584F8A9
:101860003D60002084F83C00284670BDCB68D1E97B
:101870000121206800F027FF2068816841F077018E
:1018800009E0CB68D1E90121206800F01CFF206845
:10189000816841F480418160E1E719E0CA684968E4
:1018A000206800F0E5FF5021206806E0CA6849681A
:1018B000206800F0EEFF6021206800F00EFFCEE708
:1018C000CA684968206800F0D3FF40212068F4E727
:1018D000226801461046F0E710B586B00446142190
:1018E0006846FEF7A7FC0E492068884216D10D48CD
:1018F0000021026842F001020260006800F001006D
:1019000005904FF4E06000900220CDE90101012034
:10191000CDE9031069460448FFF724FA06B010BD6C
:1019200000000140303802400000024070B504461B
:1019300090F83C0000260D4601280FD0012084F8C5
:101940003C006AB1042A1DD0082A2FD00C2A3FD0AF
:101950000126002084F83C00304670BD022070BD96
:10196000206800F0C3FE2068816941F008018161B0
:101970002068816921F004018161206881692A69F8
:10198000114311E0206800F0E1FE2068816941F414
:10199000006181612068816921F480618161206832
:1019A00081692A6941EA02218161D2E7206800F059
:1019B00003FF2068C16941F00801C1612068C16965
:1019C00021F00401C1612068C1692A69114311E055
:1019D000206800F025FF2068C16941F40061C16101
:1019E0002068C16921F48061C1612068C1692A69E8
:1019F00041EA0221C161ACE710B5040003D094F8BC
:101A00003D0010B107E0012010BD002084F83C002B
:101A1000204600F01EF8022084F83D00211D2068B9
:101A200000F0DCFD012084F8460084F83E0084F8D4
:101A30003F0084F8400084F8410084F8420084F8B4
:101A4000430084F8440084F8450084F83D000020F9
:101A500010BD704710B50446022249B104290ED0CA
:101A6000082913D094F84100012816D0012010BD98
:101A700094F83E000128F9D184F83E200FE094F854
:101A80003F000128F2D184F83F2008E094F840009C
:101A90000128EBD184F8402001E084F841200122A4
:101AA000206800F003FE16492068164A884201D0DB
:101AB000904203D1436C43F400434364206888425E
:101AC00013D0B0F1804F10D00F4988420DD00F498C
:101AD00088420AD00E49884207D0904205D00D496D
:101AE000884202D00C49884204D1816801F0070184
:101AF000062903D0016841F001010160002010BDFA
:101B000000000140000401400004004000080040C3
:101B1000000C0040004001400018004030B5044671
:101B20000D460068002200F0C1FD194B41F2111171
:101B300020688A10984202D0164B984209D1036A55
:101B40000B4206D1036A134203D1436C23F40043D2
:101B500043642068036A0B4206D1016A114203D133
:101B6000016821F00101016001203DB1042D08D080
:101B7000082D09D084F84100002030BD84F83E00D3
:101B8000FAE784F83F00F7E784F84000F4E7000044
:101B9000000001400004014038B5044690F84200BE
:101BA000202801D0022038BD51B14AB10120206364
:101BB00000206063204601F03FF8216B012901D02D
:101BC000012038BD21680A684968009121680C31FC
:101BD00051E8002F42F0100241E80023002BF5D11C
:101BE00038BD00002DE9F04100683F4A904278D1AD
:101BF00000263E4F322903D3312187F8316006E0B9
:101C00007E5403E0491E00F8016C89B231B17818A6
:101C100010F8012C0D2AF5D00A2AF3D0052234A1A0
:101C20003248FEF720FB0125334C002830D0042237
:101C300032A12E48FEF717FB002839D031A12B48DE
:101C4000FEF703FB00283FD031A12848FEF7FDFA3C
:101C5000A8B332A12548FEF7F8FA88B331A123488A
:101C6000FEF7F3FA68B331A12048FEF7EEFA48B365
:101C70001E4930A001F010FD32211C48FEF7DAFAAF
:101C8000BDE8F04119493222A1F14800FFF784BFB5
:101C9000A5702670781DFEF7F5FA80B2E0800A285C
:101CA00001D20A2002E0632818D96320E08015E001
:101CB000A5702570381DFEF7E5FA208109E006E0E1
:101CC00009E00AE00AE00CE0A570267006E0A570C5
:101CD0002570668102E0A57000E0A67001F0B6FDF7
:101CE000CAE7BDE8F0810000004800402C02002057
:101CF00064757479200000000000002072706D206F
:101D0000000000006D6F64655F6475747900000009
:101D10006D6F64655F72706D0000000073746172B6
:101D20007400000073746F700000000073746174BD
:101D300075730000556E6B6E6F776E3A2025730DCC
:101D40000A00000070470000F8B501680446086802
:101D5000CA684B6910F00F0F4FF0000559D003F01F
:101D6000010602F49077374365D0C10705D0D1054D
:101D700003D5616C41F001016164410705D5D907C4
:101D800003D0616C41F002016164810705D5D90778
:101D900003D0616C41F004016164010707D502F0D2
:101DA0002001314303D0616C41F008016164616C32
:101DB00000293AD0800604D5900602D5204600F0CE
:101DC00053FE20684069616CC0F38010090700D49D
:101DD00060B3204600F013FE20684069400621D51C
:101DE0002068143050E8001F21F0400140E8001244
:101DF000002AF5D1E06BA8B172490165E06BFEF7EE
:101E00000EFE002811D0E06B016D01B0BDE8F0407E
:101E1000084783060FD593060DD52046BDE8F84048
:101E200000F022BE2046FFF78DFFF8BD2046FFF7E9
:101E300089FF6564F8BD266B2023012E7ED1C6067E
:101E40007CD5D6067AD508684868009048694FF076
:101E5000020640064DD5E26B106840684FF480776B
:101E60000004000C3AD0A18D814237D9E085D069B9
:101E7000B8422DD020680C3050E8001F21F480714A
:101E800040E80012002AF5D12068143050E8001F05
:101E900021F0010140E80012002AF5D12068143039
:101EA00050E8001F21F0400140E80012002AF5D15F
:101EB00084F84230256320680C3050E8001F21F080
:101EC000100140E80012002AF5D1E06BFEF75EFD3C
:101ED0006663A08DE18D401A81B206E0A18D81423A
:101EE000A8D1D069B842A5D166632046FFF77AFE33
:101EF000F8BDA08DE18D401A81B2E08D0028F7D0A9
:101F00000029F5D020680C3050E8002F22F49072A0
:101F100040E80027002FF5D12068143050E8002F4A
:101F200022F0010240E80027002FF5D184F842306A
:101F3000256320680C3050E8002F00E006E022F016
:101F4000100240E80023002BF3D1CDE705062BD586
:101F5000150629D594F841002128C9D1A068B0F50B
:101F6000805F01D12069B0B1206A411C21622168E3
:101F700000784860E08C401E0004000CE084B7D17B
:101F80002068C16821F08001C1602068C16841F00B
:101F90004001C160F8BD206A0088C0F308004860B5
:101FA000206A801C2062E5E74006F3D55006F1D593
:101FB000CA68204622F04002CA6084F8413000F02E
:101FC0003DF9F8BDB728000870B5040004D094F8B6
:101FD0004100002510B106E0012070BD84F840509A
:101FE000204600F023F8242084F841002068C168CE
:101FF00021F40051C160204600F098FD206801697D
:1020000021F4904101612068416921F02A01416178
:102010002068C16841F40051C1606564202084F8E3
:10202000410084F842006563002070BD2DE9F04155
:1020300086B0064614216846FEF7FCF82F49306842
:10204000884257D12E480024016841F48021016064
:10205000006800F48020059029481038016841F09C
:10206000040101600068694600F0040005904FF427
:10207000406000900220CDE9010403200390072076
:1020800004902048FEF76EFE204D1F484FF0006779
:102090002860C5E901744FF48068C5E903486C61A4
:1020A000AC61EC612C6228466C62FEF79BFD08B1C6
:1020B000FEF76AFCF563AE631348154D3030E5E872
:1020C00002074020A5E81101114845F81449AC6108
:1020D000EC612C626C62FEF785FD08B1FEF754FCE2
:1020E000B563002211462720AE63FEF7ABFF272021
:1020F000FEF79AFF06B0BDE8F081000000480040FE
:10210000403802400008024028600240600200207F
:10211000C0020020704770472DE9F843044690F84C
:102120004100984616460D46202802D00220BDE800
:10213000F88385B17EB100206064212084F84100DD
:10214000FEF712FFA6848146E684A0682027B0F53A
:10215000805F02D003E00120E9E7206910B12E463C
:1021600000250EE000260CE08021204600F0B4FDA2
:10217000A8B9C6B116F8010B21684860E08C401E72
:10218000E084E08C4B464FF00002CDF80080002840
:10219000EAD14FF04001204600F09EFD40B184F8A6
:1021A00041700320C3E735F8020BC0F30800E3E7F2
:1021B00084F841700020BAE770B5044690F84100F9
:1021C000202801D0022070BD01B3FAB12162A2849F
:1021D000E28400206064212384F84130A56B144B15
:1021E000EB63A56B134B2B64A56B134BEB64A36BD9
:1021F000186520681346A56B021D2846FEF75CFD96
:1022000030B110206064202084F84100012070BDAE
:1022100021686FF0400008602068143050E8001F0B
:1022200041F0800140E80012002AF5D1002070BD85
:10223000B3290008F5290008C52800087047704731
:10224000FEE7000070B586B014216846FDF7F2FF86
:1022500023480024016841F004010160016801F095
:1022600004010591016841F080010160016801F0FD
:1022700080010591016841F002010160016801F0EF
:1022800002010591016841F0010101600068154EED
:1022900000F001004FF460450590002229463046C9
:1022A000FEF75DFE00950125CDE9015469463046F3
:1022B0000394FEF757FD4FF4E07000904FF4441084
:1022C000CDE9010569460848FEF74CFD002211469C
:1022D0001720FEF7B7FE1720FEF7A6FE06B070BD6A
:1022E00030380240000402400008024010B596B0A9
:1022F00000240F9410941194129413941C21684696
:102300001494FDF797FF202107A8FDF793FF3048AD
:102310002E490160A721C0E901146321C0E903141B
:102320008021C0E90541FFF7E5F908B172B6FEE783
:102330004FF480500F900FA92548FFF75FFA08B1BE
:1023400072B6FEE72248FFF757FB08B172B6FEE708
:10235000139413A91E481494FFF784F908B172B6B8
:10236000FEE76020CDE900040294039404940594F0
:102370000022694616480694FFF7D8FA08B172B6EB
:10238000FEE7042269461248FFF7D0FA08B172B698
:10239000FEE7082269460E48FFF7C8FA08B172B690
:1023A000FEE70794089409944FF400500A94CDE98D
:1023B0000B4007A906480E94FFF72AF908B172B638
:1023C000FEE70348FFF788FA16B010BD0000014091
:1023D0005401002010B586B00024164800940194E2
:1023E0000294039404944FF08041059401605321BA
:1023F000C0E90114611EC0E9031480218161FFF767
:1024000079F908B172B6FEE74FF480500090694642
:102410000848FFF7F3F908B172B6FEE7049404A97F
:1024200004480594FFF71EF9002801D072B6FEE7B4
:1024300006B010BD9C010020FEE7FEE73348B6EE73
:10244000001A03460289816AD3ED080A511A01F184
:102450001D023B2A02D230EE810A50E000EE101A33
:10246000D0ED091A2A4BB8EEC00A31EE800A10EE00
:10247000102A80ED090A9A4203DD9FED260A80EDBD
:10248000090A10EE102A244B9A4203D99FED230A21
:1024900080ED090A00EE101AD0ED061A90ED092A17
:1024A000B8EEC00A21EE800AD0ED071A01EE820ACA
:1024B00010EE101AB1F17E5F02DDB7EE000A06E001
:1024C00010EE101A11F1814F01D9BFEE000A144A23
:1024D00030EE800A10EE101A80ED080A914203DAFD
:1024E000B2EE040A80ED080A10EE101A0D4A91426D
:1024F00003DD9FED0D0A80ED080A30EE010ABCEE07
:10250000C00A10EE101A8180704700000000002001
:102510000050434700504347005043C7005043C753
:10252000000020410000C6420000C64270477047CC
:10253000FEF720BD30B593B030216846FDF77AFE36
:1025400014210CA8FDF776FE1E480025016841F015
:1025500080510160006800F0805011901A480168B5
:1025600041F4804101600068022400F48040119031
:1025700001200090000401908001CDE90640082070
:1025800008904FF4A870CDE9090404200B90684628
:10259000FEF774FE08B172B6FEE70CA90F2081E8C1
:1025A00031004FF4A0500F904FF48050109005214F
:1025B0000CA8FEF779FD002801D072B6FEE713B033
:1025C00030BD000040380240007000400248016801
:1025D00041F470010160704788ED00E0F0B50268D9
:1025E000274B284D284E294F294C4FF0804C9842BC
:1025F00009D0604507D0A84205D0B04203D0B84208
:1026000001D0A04204D122F0700E4A6842EA0E02C4
:1026100098421BD0604519D0A84217D0B04215D0BF
:10262000B84213D0A04211D01A4DA8420ED01A4D74
:10263000A8420BD0194DA84208D0194DA84205D088
:10264000184DA84202D0184DA84203D122F440757B
:10265000CA682A434D6922F080022A438D68C56208
:102660000D688562984201D0A04201D109690163D9
:10267000016841F004010160012141610260F0BD87
:10268000000001400004004000080040000C004031
:102690000004014000400140004401400048014066
:1026A00000180040001C00400020004010B501F060
:1026B0001F030121046A99408C430462016A9A4015
:1026C0001143016210BD10B5846842EA032224F46C
:1026D0007F440A432243826010BD826822F0700268
:1026E0000A4342F00701816070470000F0B5036AB9
:1026F000026A22F00102026242688469124E24F0EA
:1027000073050C682C4323F002058B682B430D4D99
:10271000A84201D0B04205D123F00807CB683B4363
:1027200023F00403A84201D0B04205D14D6922F440
:10273000407215438A692A43426084614968416353
:102740000362F0BD0000014000040140F0B5026AE0
:10275000036A23F010030362436884690D6824F45C
:10276000E64444EA05248D6822F0200242EA05127C
:102770000F4D104EA84201D0B04206D1CF6822F0D2
:10278000800242EA071222F04002A84201D0B04281
:1027900007D14D6923F4406343EA85038D6943EA19
:1027A000850343608461496881630262F0BD000073
:1027B0000000014000040140F0B5026A036A23F4FE
:1027C000807303624368C46922F4007224F07305C5
:1027D0000C68124E2C438D6842EA05220E4DA84229
:1027E00001D0B04206D1CF6822F4006242EA07224B
:1027F00022F48062A84201D0B04207D14D6923F48F
:10280000405343EA05138D6943EA05134360C461ED
:102810004968C1630262F0BD00000140000401404C
:1028200030B5046A026A22F4805202624268C369C7
:102830000D6823F4E64343EA05238D6824F400542D
:1028400044EA0534084DA84202D0084DA84204D1FC
:102850004D6922F4804242EA85124260C3614968B0
:102860000164046230BD000000000140000401402A
:1028700010B5036A046A24F001040462846924F038
:10288000F00444EA021423F00A020A43846102625B
:1028900010BD10B5036A046A24F010040462846950
:1028A00023F0A00324F4704444EA023243EA011105
:1028B0008261016210BD10B5806B0021C185FFF7F8
:1028C00041FA10BD70B5846B2068406994F84110DE
:1028D000C0F3C0100025212904D118B1E584204699
:1028E00000F0B4F82068406994F84210C0F38010FA
:1028F000222904D118B1E585204600F080F8606CEB
:1029000040F0100060642046FFF71CFA70BD10B55F
:102910000146806B096809684FF00002C9052ED492
:10292000C28501680C3151E8003F23F4807341E80F
:102930000034002CF5D10168143151E8003F23F038
:10294000010341E80034002CF5D10168143151E84D
:10295000003F23F0400341E80034002CF5D1202152
:1029600080F84210016B012909D101680C3151E84E
:10297000003F23F0100341E80034002CF5D14263FE
:10298000016B012902D0FFF7C5FB10BD818DFFF758
:1029900029F910BD10B5806B01214163016B01293C
:1029A00002D0FFF7B8FB10BD818D4908FFF71AF977
:1029B00010BD10B50146806B09680968C90516D4B9
:1029C0000021C1840168143151E8002F22F08002F7
:1029D00041E80023002BF5D101680C3151E8002FAC
:1029E00042F0400241E80023002BF5D110BDFFF773
:1029F00025FC10BD10B5806BFFF721FC10BD0168F0
:102A00000C3151E8002F22F4907241E80023002B92
:102A1000F5D10168143151E8002F22F0010241E89C
:102A20000023002BF5D1016B012909D101680C317C
:102A300051E8002F22F0100241E80023002BF5D1CD
:102A4000202180F8421000210163704701680C3199
:102A500051E8002F22F0C00241E80023002BF5D1FD
:102A6000202180F84110704708B590F842102229C3
:102A700001D0022008BD82684FF480539A4201D1F0
:102A8000016921B1816A9A421BD04AB10AE0026809
:102A9000816A5268C2F308020A80816A891C08E0D0
:102AA000026972B10268526802F07F020A70816A9C
:102AB000491C8162C18D491E0904090CC18503D0DE
:102AC0001BE002685268F1E70168CA6822F0200240
:102AD000CA600168CA6822F48072CA6001684A69E3
:102AE00022F001024A61202180F842100021416356
:102AF000026B012A03D0FFF70DFB002008BD016324
:102B000001680C3151E8002F22F0100241E8002347
:102B1000002BF5D101680A68D20602D50A68496817
:102B20000091818DFFF75EF8E7E7000070B504467D
:102B300000680169E26821F4405111430161216993
:102B4000A068E26908436169114308432168CA68C3
:102B500049F20C639A430243CA6020684169A26942
:102B600021F440711143416131492068884202D00B
:102B70003049884202D1FEF741FB01E0FEF72EFB0F
:102B8000E2690023192164253226B2F5004F6268FC
:102B900028D0A0FB0101930F9200FDF713FB014623
:102BA000B0FBF5F06FF01802504301EB800006EB2C
:102BB0000010B0FBF5F000F0F002B1FBF5F002EB15
:102BC0000012B1FBF5F06FF01803584301EB8000E1
:102BD00006EB0010B0FBF5F000F00F002168104488
:102BE000886070BDA0FB010192185B41FDF7EAFA15
:102BF0000146B0FBF5F00201B1FBF5F06FF01803F0
:102C0000584301EB800006EBC000B0FBF5F000F08C
:102C1000F80002EB4002B1FBF5F0584301EB8000F5
:102C200006EBC000B0FBF5F000F00700D6E70000AF
:102C3000001001400014014038B5816204468285CD
:102C4000002013466064222284F84220E56B1F4A6C
:102C5000EA63E56B1E4A2A64E56B1E4AEA64E26B8E
:102C600010650A462168E06B091DFEF725F830B1B2
:102C700010206064202084F84200012038BD2068C4
:102C8000016840680090206948B120680C3050E825
:102C9000001F41F4807140E80012002AF5D120683D
:102CA000143050E8001F41F0010140E80012002AF2
:102CB000F5D12068143050E8001F41F0400140E891
:102CC0000012002AF5D1002038BD00000F290008AD
:102CD00095290008C52800082DE9F84398461746AD
:102CE0000D460446089E24E0701C22D0FEF73CF9F5
:102CF000A0EB0800B0421AD8CEB12068C1684907DD
:102D000017D5802D15D0402D13D00168C943090770
:102D10000FD401680025406800902046FFF76FFE41
:102D20000820606484F840500120BDE8F883032047
:102D3000FBE72068006835EA000004D00020B842B4
:102D4000D2D00020F1E70120F9E700000148FEF7AA
:102D5000FBBF0000E4010020FEE700000FB4054BBC
:102D600010B503A9044A029800F008F910BC5DF8F8
:102D700014FB0000353700083C0000207CB50C0037
:102D80001D461646014601D0601E00E00020CDE938
:102D90000010064B6A462946304600F0EFF8002C3A
:102DA00002D0009A002111707CBD0000833600081B
:102DB0000907090E002804DB00F1E02080F8001468
:102DC000704700F00F0000F1E02080F8141D7047FC
:102DD000004870474000002002E008C8121F08C1E8
:102DE000002AFAD170477047002001E001C1121F8C
:102DF000002AFBD1704700002DE9FF5F82B000215F
:102E0000DDE90430020DDDF840B0034318D044F68C
:102E10001050A2F2FF3242431514119801281FD01E
:102E2000A5EB0B00401C5FEA000A4FF000064E4F76
:102E3000DFF83891B046504615D5CAF1000413E0CA
:102E4000119801244AA3012801D16FEA0B010298CD
:102E5000119AC0E90031C0E9024206B0BDE8F09F16
:102E6000CBF10000DFE704460021404A491842EB5D
:102E70000450CDE9001012E0E00707D032463B468F
:102E800040464946FDF71FFB8046894632463B4691
:102E900010461946FDF717FB06460F466410002C36
:102EA000EAD1DDE90401DDE90023BAF1000F06DA19
:102EB000FDF709FB42464B46FDF705FB05E0FDF734
:102EC00074FB42464B46FDF770FB04460E4600225B
:102ED000284BFDF7F1FB03D84FF0FF30014607E028
:102EE0000022254B20463146FDF746FAFDF7CCFB84
:102EF000102409E0002C0ADB0A220023FDF762F906
:102F0000039B30321A55641E50EA0102F2D1641C50
:102F1000039AC4F111031444119A012A03D0012227
:102F200008430DD10AE0084304D000204FF0110BF4
:102F3000119072E7A3EB0B056D1E0DE05B4504DD00
:102F40004FF0000205F1010504E003DA4FF0000242
:102F5000A5F10105002AECD002981199C0E90231CF
:102F6000C0E9004579E70000000014400000F03F90
:102F7000300000000000F0430000E03F2DE9FF4F6B
:102F800095B09A46884606460025EEE1252877D179
:102F900000242746F94A0121039400E0044316F86F
:102FA000013F203B01FA03F01042F7D130782A2884
:102FB00011D06FF02F033078A0F13002092A16D813
:102FC000039A44F0020402EB820203EB4202104433
:102FD000761C0390EFE758F8042B0392002A03DADB
:102FE000504244F40054039044F00204761C3078BC
:102FF0002E2816D116F8010F44F004042A280DD00B
:103000006FF02F023078A0F13003092B09D807EBBD
:10301000870302EB4303C718761CF3E758F8047BD9
:10302000761C30786C280FD006DC4C2817D0682826
:103030000DD06A2814D104E0742810D07A280FD15A
:103040000DE044F400140AE044F4801401E044F478
:1030500040147278824202D104F58014761C761CEA
:10306000307866280BD013DC582877D009DC00288C
:1030700075D04528F6D04628F4D047281AD193E1D8
:1030800018E0632835D0642879D0652812D18BE107
:10309000702873D008DC6728F1D069286FD06E28BB
:1030A0000DD06F2806D1ACE073282CD0752874D0D1
:1030B000782853D05246179990476D1C54E1C4F3B9
:1030C0000250022809D003280DD0D8F80010042897
:1030D0000DD00D6008F1040846E1D8F80010EA1799
:1030E000C1E90052F6E7D8F800100D80F2E70D7044
:1030F000F0E718F8041B8DF8001000208DF801008F
:10310000EB46012003E058F804BB4FF0FF306107A5
:103110004FF0000102D40DE009F101018946B942E6
:103120000FDA8145F8DB1BF809100029F4D108E01B
:1031300009F1010189468142FADB1BF809100029D7
:10314000F6D103985346A0EB090721463846179A53
:1031500000F080FA284400EB090507E044E008E1AC
:103160000DE01BF8010B524617999047B9F1010980
:10317000F7D2534621463846179AF2E039E00A2141
:10318000C4F302524FF0000B0091022A06D058F807
:10319000040BC117032A09D00AE023E008F1070055
:1031A00020F00702F2E80201904605E000B2C117E4
:1031B000042A01D140B2C117002906DA0A460021CB
:1031C000404261EB02012D2202E0220504D52B22B0
:1031D0008DF80420012203E0E20701D02022F7E766
:1031E000914657E00A2100E010214FF0000B0091BA
:1031F0000BE010214FF0000B44F00404082700916D
:1032000003E008204FF0000B0090C4F30252022AA2
:1032100005D058F8040B0021032A08D008E008F173
:10322000070020F00702F2E80201904603E080B2B6
:10323000042A00D1C0B24FF0000922072AD5327803
:10324000702A07D0DDF800C08CF0100C5CEA0B0C83
:1032500005D00EE040228DF80420012208E050EA5B
:10326000010306D030238DF804308DF805200222AA
:103270009146009B83F0080353EA0B030AD150EAFE
:10328000010201D1620705D530228DF804204FF0EC
:1032900001097F1E3278582A04D039A20C920CAA58
:1032A00002920BE03BA2F9E75B46009AFCF78AFF2B
:1032B0000C9B9B5C029A521E0292137050EA010210
:1032C000F2D1029804A9081A00F1200B600702D578
:1032D00024F4803400E001275F4502DDA7EB0B00FA
:1032E00000E0002000EB0B01009003984944401AD5
:1032F0000390E00306D453462146179A039800F042
:10330000A9F90544002706E001A85246C05D1799B7
:1033100090476D1C7F1C4F45F6DBE0030CD55346F0
:103320002146179A039800F095F9054404E03020EF
:103330005246179990476D1C0099481E009000292D
:10334000F5DC08E00298029952460078491C029187
:10335000179990476D1CBBF10001ABF1010BF1DC3B
:103360005BE100F065F90544761C307800287FF4B5
:103370000DAE19B02846BDE8F08F00000928010005
:1033800030313233343536373839616263646566DB
:10339000000000003031323334353637383941429D
:1033A0004344454600000000600700D4062708F1AA
:1033B000070020F00700F0E80223804603F0004CED
:1033C0005FEA0C0001D097A009E0200501D596A086
:1033D00005E0E00701D095A001E0AFF24C001390AA
:1033E000307823F0004365280CD006DC452809D04E
:1033F00046281DD047287FD13BE0662818D0672893
:103400007AD136E00021112F01DB112000E0781C79
:10341000CDE9000104A90CA8FFF7EEFCDDE90D01E0
:103420000C9A4FF0000B07F10109109200914EE049
:103430004FF000400097CDE9011004A90CA8FFF758
:10344000DBFCDDE90D020C9B0F994FF0000B914660
:103450001093009211B9791C00EB0109B7EB090038
:1034600003D4C0F1FF3B07F10109A9EB070001906C
:1034700042E0012F00DA01270021112F01DD112088
:1034800000E03846CDE9000104A90CA8FFF7B4FC20
:10349000DDE90D010C9A00914FF0000BB946109236
:1034A00021070FD4009A4A4503DA914601E0A9F1B9
:1034B0000109B9F1010F05DD109AA9F10101515C73
:1034C0003029F4D0B84202DA10F1040F03DA0121F6
:1034D000CDE9011010E0002803DC8344A9EB0001D2
:1034E00002E0411C494500DD8946A0EB0B00401C71
:1034F00001904FF000400290200705D40198484504
:1035000002DB4FF0FF30019000208DF84B00029855
:103510000DF14B07B0F1004F25D002200C902B206D
:103520000D90029800280CDA404202902D200D9058
:1035300007E00A210298FCF7B2FE3031029007F84A
:10354000011D0C99481E0C900029F2DC02980028FD
:10355000EFD1791E0D980870307800F0200040F00F
:10356000450007F8020D11A8C01BC01D029013985A
:10357000007800B1012000EB0901019801EBE07136
:10358000029801440398401A401E0390E00306D4B9
:1035900053462146179A039800F05CF805441398A7
:1035A000007818B15246179990476D1CE00323D557
:1035B00053462146179A039800F04CF805441BE047
:1035C000BBF1000F07DB0098584504DD10981799F0
:1035D00010F80B0001E017993020524690470198EF
:1035E0000BF1010B401E05F10105019004D12E20C5
:1035F0005246179990476D1CB9F10001A9F10109D4
:10360000DEDC05E017F8010B5246179990476D1C58
:103610000299481E02900029F4DC53462146179A6D
:1036200003989EE62D0000002B0000002000000003
:103630002DE9F041044600251E461746880404D4AF
:1036400005E039462020B0476D1C641EF9D5284698
:10365000BDE8F0812DE9F041044600251E46904664
:10366000C80301D5302700E02027880404D505E0F1
:1036700041463846B0476D1C641EF9D52846BDE862
:10368000F0814A68002A06D00A68531C0B6010704B
:103690004868401E486070470FB4FF2110B503AB67
:1036A0000848029AFFF76AFB002807DDFF2805D8C3
:1036B000044982B201F5C870FEF77EFD10BC5DF8CA
:1036C00014FB00005400002070B5154C0023A088A6
:1036D000E188884220D06269521CA2F51C556261C3
:1036E000103D1BD16361884201D2401C00E0401EA6
:1036F000A08081B20A20B1FBF0F200FB121010B9D9
:1037000008A0FFF7C9FFA188E088814206D1BDE883
:10371000704004A0FFF7C0BFA180636170BD0000CE
:103720000000002070776D5F6363723A25640D0AB4
:103730000000000013B54FF0FF3301226946024834
:10374000FEF7EAFC00981CBDE401002008B5FDF777
:1037500019FCFEF7EFFEFEF775FD36480024016800
:1037600041F4001101600068224600F4001000904E
:1037700021460C20FDF766FC0C20FDF755FC0022CD
:1037800011460E20FDF75EFC0E20FDF74DFCFEF706
:10379000ADFD2A48284901604FF4E131C0E9011428
:1037A0000C21C460C0E904418461C461FEF70CFCD3
:1037B00008B172B6FEE7FEF70DFE20484838FDF767
:1037C000E1FF1E49322248311C48FEF7E5F91CA0F2
:1037D000FFF7C4FA194D1C4C903D2968A088486336
:1037E000296888632968C86300F076F860702868E3
:1037F000A1884163286881632868C163A078012893
:1038000002D000F00DF9F2E7207878B10128EED16E
:10381000FDF7AAFB2169401A142804D3FDF7A4FB85
:103820002061FEF70BFE00F071F8E0E7FFF74CFFB8
:10383000F9E700003038024000480040E401002071
:103840004F4B0D0A000000000000002038B50D4865
:103850000346047899789A6A9B881CB1009349B111
:1038600009A108E0009209B107A100E007A1C28800
:10387000084803E005A11346028907A0FFF70CFFE3
:1038800038BD00000000002052554E0053544F50E8
:1038900000000000983B000853746174653A2025CD
:1038A000732C204D6F64653A2052504D0D0A5250D2
:1038B0004D205461726765743A2025642C20416361
:1038C0007475616C3A2025640D0A447574793A2048
:1038D00025640D0A0000000070B50B4D40212846FC
:1038E000FDF738FB044680212846FDF733FB0646EA
:1038F000A9152846FDF72EFB0146A00040EA460028
:103900000843C0B270BD0000000802402DE9F0413C
:10391000FFF7E2FF3F49487048784FF400577D00B9
:103920003D4C6E00072870D2DFE800F06F1A3F327E
:103930000411520000213948FEF78CF80421374861
:10394000FEF7ECF808213548FEF7E8F84CE00021D6
:103950003248FEF77FF804213048FEF7DFF807E031
:1039600000212E48FEF7DAF804212C48FEF772F801
:1039700008212A48FEF7D2F8002239462046FDF7F2
:10398000EEFA002229462046FDF7E9FA012236E048
:1039900000212248FEF7C2F804212048FEF75AF819
:1039A00008211E48FEF7BAF80BE000211B48FEF77D
:1039B000B5F804211948FEF7B1F808211748FEF7B9
:1039C00049F8012239462046FDF7C9FA002211E0E4
:1039D00000211248FEF7A2F804211048FEF79EF8D5
:1039E00008210E48FEF736F8002239462046FDF73A
:1039F000B6FA012229462046FDF7B1FA00223146E7
:103A00002046BDE8F041FDF7AABABDE8F04100F05C
:103A100007B800000000002000040240540100200C
:103A200010B500210F48FEF779F804210D48FEF784
:103A300075F808210B48FEF771F80B4C00224FF483
:103A400000512046FDF78BFA00224FF480412046BA
:103A5000FDF785FA2046BDE8104000224FF40041F2
:103A6000FDF77DBA54010020000402401B4810B548
:103A70000068416A1A48C268C2B1C268C1608A1A45
:103A8000184BA2F1320199420FD202EB4201164BC0
:103A90008900B3FBF1F144F62063994200D919463D
:103AA00042F210739A4203D9816210BDC16010BD09
:103AB0000E4BC27843F82210521CD1B2C1700429B7
:103AC00001D30021C17000224FEA020153F82140C6
:103AD000491C22440429F9DB9108E5E79C010020F8
:103AE000000000200F0D0300008793034400002016
:103AF000000610160006101600000000000000006E
:103B00000102030406070809000000000102030483
:103B100000404040404040404040414141414140E0
:103B20004040404040404040404040404040404095
:103B30004005020202020202020202020202020224
:103B40000220202020202020202020020202020229
:103B50000202909090909090101010101010101081
:103B6000101010101010101010101010020202028D
:103B700002028888888888880808080808080808D1
:103B800008080808080808080808080802020202CD
:103B900040000000113B000853746174653A202511
:103BA000732C204D6F64653A20445554590D0A44D6
:103BB000757479205461726765743A2025642C20ED
:103BC00041637475616C3A2025640D0A5370656514
:103BD000643A2025642052504D0D0A00FC3B000839
:103BE0000000002044000000D82D0008403C0008E0
:103BF00044000020DC060000E82D00080000000062
:103C000032003200B80B000000000000000000008D
:103C1000000000006F12833AACC5A7370000F041E6
:103C20000000000000000000010000001000000083
:103C3000000000000024F40000000000000000006C
:040000050800018965
:00000001FF
